S0180000526F626F74436F6D7065746974696F6E2E737265637B
S113000012C024C023C022C021C020C01FC01EC0F3
S11300101DC01CC01BC01AC019C018C017C016C010
S113002015C014C013C011241FBECFE5D4E0DEBF39
S1130030CDBF10E0A0E6B0E0ECE3F2E002C0059032
S11300400D92A036B107D9F7C9D0F6C0D9CF90BD6B
S113005089B91BB888E18AB986E880BD08955D9B9B
S1130060FECF8CB95E9BFECF5E9A08952FB52F709C
S11300702FBD2EB52F722EBD6F3F710569F42FB5BC
S11300802D7F2FBD2EB52F7E2EBD2FB521602FBD08
S11300902EB528602EBD1DC06F3F21E0720769F4A4
S11300A02FB52E7F2FBD2EB52F7E2EBD2FB52260EE
S11300B02FBD2EB528602EBD0CC06F3F734049F490
S11300C02EB52F7E2EBD2FB523602FBD2EB52860F3
S11300D02EBD8130910521F42EB521602EBD0EC0B8
S11300E08830910521F42EB522602EBD0FC08034D6
S11300F0910521F48EB583608EBD0895811521E0AC
S1130100920721F48EB584608EBD089581159440C4
S113011019F48EB585608EBD089584EA86BF06B64F
S113012007FEFDCF0895862B83B984E886BF06B603
S113013007FEFDCF672B29F084E886BF06B607FECD
S1130140FDCF089583B984E886BF06B607FEFDCFC8
S1130150089584E986BF06B604FCFDCF0895CF93C5
S1130160C82F80E090E0D9DF60E070E080E3DBDF5F
S11301708C2FE8DF81E090E0D0DF61E070E080E385
S1130180D2DFE7DF83B1CF910895CF93DF93D82FE8
S1130190C62F80E090E0C1DF60E070E080E3C3DF61
S11301A08D2FD0DF8C2FCEDFD4DFDF91CF91089558
S11301B082E687B986EC86B9939A3699FECF84B1E4
S11301C04EDF85B1089582E687B986EC86B9929AA6
S11301D03699FECF84B143DF85B1089587B3866035
S11301E087BB81B3806C81BB8898899AA19AA99AAC
S11301F087E690E02CDF6FEF70E088E090E036DF78
S113020080B3836080BB83B3806383BB84E680B99F
S113021067EC80E2BADF6CE081E2B7DF6AEC80E38E
S1130220B4DF89E29CDF8CE41ADFC2DF18DF82E5E9
S10F023016DFC9DF14DFF7CFF894FFCF0E
S9030000FC
