:1000000012C02CC02BC02AC029C028C027C026C0BF
:1000100025C024C023C022C021C020C01FC01EC0D4
:100020001DC01CC01BC011241FBECFE5D4E0DEBF25
:10003000CDBF10E0A0E6B0E0E8E0FCE002C0059033
:100040000D92A036B107D9F720E0A0E6B0E001C0DC
:100050001D92A136B207E1F77BD3D4C5D1CF90BDB5
:1000600089B91BB888E18AB986E880BD08955F9B8D
:10007000FECF8CB108952FB52F702FBD2EB52F72E6
:100080002EBD6F3F710569F42FB52D7F2FBD2EB5A5
:100090002F7E2EBD2FB521602FBD2EB528602EBD21
:1000A0001DC06F3F21E0720769F42FB52E7F2FBD71
:1000B0002EB52F7E2EBD2FB522602FBD2EB5286008
:1000C0002EBD0CC06F3F734049F42EB52F7E2EBD60
:1000D0002FB523602FBD2EB528602EBD8130910530
:1000E00021F42EB521602EBD0EC08830910521F47B
:1000F0002EB522602EBD0FC08034910521F48EB53F
:1001000083608EBD0895811521E0920721F48EB59C
:1001100084608EBD08958115944019F48EB5856074
:100120008EBD08954F925F926F927F928F929F92B1
:10013000AF92BF92CF92DF92EF92FF920F931F93F5
:10014000CF93DF93EC012A013B01A901980160E004
:1001500070E080E89FE3A3D34B015C01B701FF0C83
:10016000880B990B38D46B017C0120E030E0A901A9
:10017000C501B401F9D3811112C0209781F48FB564
:100180008F7C8FBD9698C29A20E030E040E85FE314
:10019000C301B201E9D3882309F45FC013C020E092
:1001A00030E040E85FE3C301B201DED381110AC051
:1001B000C130D10509F051C08FB58F7C8FBDC29879
:1001C000969A4BC020E030E040E85FE3C501B401FF
:1001D000CBD38823E4F420E030E0A901C501B401C9
:1001E000AAD41816A4F4209791F4A7019601C5018A
:1001F000B401A5D420E030E040E05FE351D3B8D3B0
:1002000079BD68BD8FB580638FBD9698C29A20E096
:1002100030E040E85FE3C301B201A6D388237CF558
:1002200020E030E0A901C301B20185D418163CF5E5
:10023000219729F5A3019201C701B60180D420E0DE
:1002400030E040E05FE32CD393D379BD68BD8FB538
:1002500080638FBDC29A969A12C020E030E040E8D9
:100260005FE3C501B40180D388234CF420E030E083
:10027000A901C501B4015FD418160CF4B4CFDF9105
:10028000CF911F910F91FF90EF90DF90CF90BF9093
:10029000AF909F908F907F906F905F904F90089558
:1002A0004F925F926F927F928F929F92AF92BF9286
:1002B000CF92DF92EF92FF920F931F93CF93DF9332
:1002C000EC012A013B01A901980160E070E080E89F
:1002D0009FE3E5D24B015C01B701FF0C880B990B42
:1002E0007AD36B017C0120E030E0A901C501B401A3
:1002F0003BD3811112C0209781F48FB58F738FBDCE
:100300009798C19A20E030E040E85FE3C301B20172
:100310002BD3882309F45FC013C020E030E040E80D
:100320005FE3C301B20120D381110AC0C130D105FE
:1003300009F051C08FB58F738FBDC198979A4BC08C
:1003400020E030E040E85FE3C501B4010DD388232D
:10035000E4F420E030E0A901C501B401ECD31816A3
:10036000A4F4209791F4A7019601C501B401E7D345
:1003700020E030E040E05FE393D2FAD27BBD6ABD7B
:100380008FB5806C8FBD9798C19A20E030E040E82F
:100390005FE3C301B201E8D288237CF520E030E0BE
:1003A000A901C301B201C7D318163CF5219729F55D
:1003B000A3019201C701B601C2D320E030E040E0C2
:1003C0005FE36ED2D5D27BBD6ABD8FB5806C8FBD29
:1003D000C19A979A12C020E030E040E85FE3C5017F
:1003E000B401C2D288234CF420E030E0A901C50159
:1003F000B401A1D318160CF4B4CFDF91CF911F91A3
:100400000F91FF90EF90DF90CF90BF90AF909F90B3
:100410008F907F906F905F904F9008958F929F92F2
:10042000AF92BF92EF92FF920F931F93CF93DF9300
:100430004B015C017A0100E010E09801AB01BC01C6
:1004400081E090E06FDE00E010E09801B501A401CA
:1004500081E090E025DFDF91CF911F910F91FF9018
:10046000EF90BF90AF909F908F9008958F929F9242
:10047000AF92BF92EF92FF920F931F93CF93DF93B0
:100480004B015C017A018B019C014DEC5CEC6CE44E
:100490007FE380E090E046DE950184014DEC5CEC6A
:1004A0006CE47FE380E090E0FBDEDF91CF911F9171
:1004B0000F91FF90EF90BF90AF909F908F90089515
:1004C000EF92FF920F931F938130910549F47901C8
:1004D00000E010E020E83FE381E090E023DE0AC086
:1004E000892B41F4790100E010E020E83FE381E04E
:1004F00090E0D6DE1F910F91FF90EF9008958FB599
:100500008F738FBD8FB58F7C8FBD88B3897F88BB7C
:1005100082B38F7382BB089584EA86BF06B607FE56
:10052000FDCF0895862B83B984E886BF06B607FE03
:10053000FDCF672B29F084E886BF06B607FEFDCF06
:10054000089583B984E886BF06B607FEFDCF0895F7
:1005500084E986BF06B604FCFDCF0895CF93C82F6B
:1005600080E090E0D9DF60E070E080E3DBDF8C2F9B
:10057000E8DF81E090E0D0DF61E070E080E3D2DF8F
:10058000E7DF83B1CF910895CF93DF93D82FC62FA4
:1005900080E090E0C1DF60E070E080E3C3DF8D2F9A
:1005A000D0DF8C2FCEDFD4DFDF91CF9108951F9362
:1005B000CF93DF9389E2D2DFC82F8BE2CFDF182FF2
:1005C000CC2324F48C2F807C09F45BC0C77009F421
:1005D00058C081E3C3DF8A7009F053C05BC04FEF9E
:1005E00050E060E070E080E09FE340DF2197B9F7E2
:1005F000113E10F1809160008C3471F4C8EBDBE0A7
:100600002FEF30E04DEC5CEC6CE47FE381E090E0B8
:1006100057DF2197A9F733C08235C9F5C8EBDBE076
:100620002FEF30E04DEC5CEC6CE47FE380E090E099
:1006300047DF2197A9F723C0103E08F5809160009D
:100640008C3471F4C8EBDBE02FEF30E04DEC5CEC68
:100650006CE47FE380E090E033DF2197A9F70FC0DF
:10066000823569F4C8EBDBE02FEF30E04DEC5CEC59
:100670006CE47FE381E090E023DF2197A9F73FDF7F
:1006800009C0C0EDD7E0ABCF80916000E9CF103E4C
:10069000D8F3F5CFDF91CF911F9108958BE25EDF04
:1006A000807F41F08BE25ADF807521F482E58093F0
:1006B000600003C08CE48093600087E24FDF8370AA
:1006C00009F075DF8BE24ADF807FB9F089E246DF0F
:1006D000807F99F0809160008C3479F410DF09C03C
:1006E0002FEF30E04DEC5CEC6CE47FE380E090E0D9
:1006F000E7DE8BE233DF84FDF3CF8BE22FDF807503
:10070000B9F089E22BDF807F99F08091600082351B
:1007100079F4F5DE09C02FEF30E04DEC5CEC6CE4D1
:100720007FE381E090E0CCDE8BE218DF807599F703
:10073000089580E687B986E886B9089590E697B966
:1007400097B1892B87B9369A3699FECF85B108952E
:1007500087B3866087BB81B3806C81BB8898899A98
:10076000A19A84B3837F84BBA99A87E690E077DC63
:100770006FEF70E088E090E07EDCDBDF80B38360C9
:1007800080BB83B3806383BB84E680B967EC80E27F
:10079000FBDE6CE081E2F8DE6AEC80E3F5DE89E204
:1007A000DDDE65DC8234E9F7B89AC09AC8EED3E0A2
:1007B0004FEF50E06DEC7CEC8CE49FE32FDE83E0A8
:1007C000BDDF82E0BBDF219799F7C8EED3E04FEFA2
:1007D00050E06DEC7CEC8CE49FE320DE2197B9F7D0
:1007E0005DDF83E0ABDF8330D8F482E0A7DF8330C6
:1007F000B8F4C8E8D3E14FEF50E06DEC7CEC8CE44A
:100800009FE30CDE2197B9F77ADE88EE93E0C0987B
:100810000197E9F788EE93E0C09A0197E9F7F5CFE1
:1008200082E08CDF8230C0F183E088DF823060F5C7
:1008300033C04FEF50E060E070E080E09FE316DEF1
:100840002197B9F75CDE80916000823571F4C8EBC6
:10085000DBE02FEF30E04DEC5CEC6CE47FE380E01C
:1008600090E02EDE2197A9F70FC08C3469F4C8EB15
:10087000DBE02FEF30E04DEC5CEC6CE47FE381E0FB
:1008800090E01EDE2197A9F75F9B9FCFF0DB8335B9
:1008900009F09BCF34DEFFCFC8EBDBE0CACF505866
:1008A000BB27AA270ED00DC1FED030F003D120F017
:1008B00031F49F3F11F41EF4F3C00EF4E095E7FB12
:1008C000E9C0E92F0FD180F3BA17620773078407D5
:1008D000950718F071F49EF527C10EF4E0950B2EE4
:1008E000BA2FA02D0B01B90190010C01CA01A00182
:1008F0001124FF27591B99F0593F50F4503E68F1DD
:100900001A16F040A22F232F342F4427585FF3CF1D
:10091000469537952795A795F0405395C9F77EF4EE
:100920001F16BA0B620B730B840BBAF09150A1F037
:10093000FF0FBB1F661F771F881FC2F70EC0BA0FBD
:10094000621F731F841F48F4879577956795B79545
:10095000F7959E3F08F0B3CF9395880F08F099273D
:10096000EE0F97958795089571D008F481E008956A
:1009700004D06894B111D9C00895BCD088F09F57B5
:1009800090F0B92F9927B751A0F0D1F0660F771FDB
:10099000881F991F1AF0BA95C9F712C0B13081F0BB
:1009A000C3D0B1E00895C0C0672F782F8827B85F03
:1009B00039F0B93FCCF3869577956795B395D9F71C
:1009C0003EF490958095709561957F4F8F4F9F4F26
:1009D0000895E89409C097FB3EF490958095709532
:1009E00061957F4F8F4F9F4F9923A9F0F92F96E97B
:1009F000BB279395F695879577956795B795F111F0
:100A0000F8CFFAF4BB0F11F460FF1BC06F5F7F4F8C
:100A10008F4F9F4F16C0882311F096E911C077239E
:100A200021F09EE8872F762F05C0662371F096E8A7
:100A3000862F70E060E02AF09A95660F771F881F76
:100A4000DAF7880F9695879597F90895990F00081A
:100A5000550FAA0BE0E8FEEF16161706E807F90790
:100A6000C0F012161306E407F50798F0621B730B2B
:100A7000840B950B39F40A2661F0232B242B252BAC
:100A800021F408950A2609F4A140A6958FEF811D4F
:100A9000811D089597F99F6780E870E060E00895F0
:100AA0009FEF80EC089500240A9416161706180686
:100AB0000906089500240A94121613061406050662
:100AC0000895092E0394000C11F4882352F0BB0FF3
:100AD00040F4BF2B11F460FF04C06F5F7F4F8F4F56
:100AE0009F4F089557FD9058440F551F59F05F3F91
:100AF00071F04795880F97FB991F61F09F3F79F040
:100B000087950895121613061406551FF2CF4695C1
:100B1000F1DF08C0161617061806991FF1CF869543
:100B20007105610508940895E894BB276627772727
:100B3000CB0197F908958ADF08F48FEF08950BD061
:100B4000C0CFB1DF28F0B6DF18F0952309F0A2CFAF
:100B5000A7CF1124EACFC6DFA0F3959FD1F3950F5D
:100B600050E0551F629FF001729FBB27F00DB11D31
:100B7000639FAA27F00DB11DAA1F649F6627B00DC1
:100B8000A11D661F829F2227B00DA11D621F739FAA
:100B9000B00DA11D621F839FA00D611D221F749FB8
:100BA0003327A00D611D231F849F600D211D822FFF
:100BB000762F6A2F11249F5750408AF0E1F0882346
:100BC0004AF0EE0FFF1FBB1F661F771F881F915053
:100BD0005040A9F79E3F510570F05CCFA6CF5F3F14
:100BE000ECF3983EDCF3869577956795B795F79586
:100BF000E7959F5FC1F7FE2B880F911D969587950E
:080C000097F90895F894FFCF65
:00000001FF
