:1000000012C024C023C022C021C020C01FC01EC0F7
:100010001DC01CC01BC01AC019C018C017C016C014
:1000200015C014C013C011241FBECFE5D4E0DEBF3D
:10003000CDBF10E0A0E6B0E0E0EDFAE002C0059030
:100040000D92A036B107D9F72BD340C5D9CF90BDBB
:1000500089B91BB888E18AB986E880BD08952FB5B3
:100060002F702FBD2EB52F722EBD6F3F710569F415
:100070002FB52D7F2FBD2EB52F7E2EBD2FB5216024
:100080002FBD2EB528602EBD1DC06F3F21E0720729
:1000900069F42FB52E7F2FBD2EB52F7E2EBD2FB527
:1000A00022602FBD2EB528602EBD0CC06F3F73405F
:1000B00049F42EB52F7E2EBD2FB523602FBD2EB552
:1000C00028602EBD8130910521F42EB521602EBD12
:1000D0000EC08830910521F42EB522602EBD0FC0D0
:1000E0008034910521F48EB583608EBD089581150D
:1000F00021E0920721F48EB584608EBD08958115AC
:10010000944019F48EB585608EBD08954F925F922C
:100110006F927F928F929F92AF92BF92CF92DF9217
:10012000EF92FF920F931F93CF93DF93EC012A017D
:100130003B01A901980160E070E080E89FE313D3E0
:100140004B015C01B701FF0C880B990BA8D36B0125
:100150007C0120E030E0A901C501B40169D381111F
:1001600012C0209781F48FB58F7C8FBD9698C29A6C
:1001700020E030E040E85FE3C301B20159D38823B7
:1001800009F45FC013C020E030E040E85FE3C30142
:10019000B2014ED381110AC0C130D10509F051C05E
:1001A0008FB58F7C8FBDC298969A4BC020E030E00F
:1001B00040E85FE3C501B4013BD38823E4F420E0C9
:1001C00030E0A901C501B4011AD41816A4F420978F
:1001D00091F4A7019601C501B40115D420E030E0E7
:1001E00040E05FE3C1D228D379BD68BD8FB580639D
:1001F0008FBD9698C29A20E030E040E85FE3C301EB
:10020000B20116D388237CF520E030E0A901C301B8
:10021000B201F5D318163CF5219729F5A3019201F7
:10022000C701B601F0D320E030E040E05FE39CD2AC
:1002300003D379BD68BD8FB580638FBDC29A969A8E
:1002400012C020E030E040E85FE3C501B401F0D225
:1002500088234CF420E030E0A901C501B401CFD3DC
:1002600018160CF4B4CFDF91CF911F910F91FF902E
:10027000EF90DF90CF90BF90AF909F908F907F9046
:100280006F905F904F9008954F925F926F927F9220
:100290008F929F92AF92BF92CF92DF92EF92FF9296
:1002A0000F931F93CF93DF93EC012A013B01A90128
:1002B000980160E070E080E89FE355D24B015C015B
:1002C000B701FF0C880B990BEAD26B017C0120E08F
:1002D00030E0A901C501B401ABD2811112C0209751
:1002E00081F48FB58F738FBD9798C19A20E030E06D
:1002F00040E85FE3C301B2019BD2882309F45FC0E9
:1003000013C020E030E040E85FE3C301B20190D2C7
:1003100081110AC0C130D10509F051C08FB58F736A
:100320008FBDC198979A4BC020E030E040E85FE372
:10033000C501B4017DD28823E4F420E030E0A901B6
:10034000C501B4015CD31816A4F4209791F4A70159
:100350009601C501B40157D320E030E040E05FE3EF
:1003600003D26AD27BBD6ABD8FB5806C8FBD979872
:10037000C19A20E030E040E85FE3C301B20158D207
:1003800088237CF520E030E0A901C301B20137D316
:1003900018163CF5219729F5A3019201C701B60172
:1003A00032D320E030E040E05FE3DED145D27BBDD8
:1003B0006ABD8FB5806C8FBDC19A979A12C020E03C
:1003C00030E040E85FE3C501B40132D288234CF449
:1003D00020E030E0A901C501B40111D318160CF4D6
:1003E000B4CFDF91CF911F910F91FF90EF90DF90ED
:1003F000CF90BF90AF909F908F907F906F905F90C5
:100400004F9008958F929F92AF92BF92EF92FF927A
:100410000F931F93CF93DF934B015C017A0100E0B0
:1004200010E09801AB01BC0181E090E06FDE00E0DC
:1004300010E09801B501A40181E090E025DFDF9193
:10044000CF911F910F91FF90EF90BF90AF909F9031
:100450008F9008958F929F92AF92BF92EF92FF92EA
:100460000F931F93CF93DF934B015C017A018B01B4
:100470009C014DEC5CEC6CE47FE380E090E046DEB8
:10048000950184014DEC5CEC6CE47FE380E090E04E
:10049000FBDEDF91CF911F910F91FF90EF90BF9006
:1004A000AF909F908F900895EF92FF920F931F93BC
:1004B0008130910549F4790100E010E020E83FE344
:1004C00081E090E023DE0AC0892B41F4790100E04D
:1004D00010E020E83FE381E090E0D6DE1F910F912D
:1004E000FF90EF9008958FB58F738FBD8FB58F7C80
:1004F0008FBD88B3897F88BB82B38F7382BB089519
:1005000084EA86BF06B607FEFDCF0895862B83B921
:1005100084E886BF06B607FEFDCF672B29F084E886
:1005200086BF06B607FEFDCF089583B984E886BF6F
:1005300006B607FEFDCF089584E986BF06B604FC23
:10054000FDCF0895CF93C82F80E090E0D9DF60E021
:1005500070E080E3DBDF8C2FE8DF81E090E0D0DF2C
:1005600061E070E080E3D2DFE7DF83B1CF910895EF
:10057000CF93DF93D82FC62F80E090E0C1DF60E0FB
:1005800070E080E3C3DF8D2FD0DF8C2FCEDFD4DF90
:10059000DF91CF9108951F93CF93DF9389E2D2DF4C
:1005A000C82F8BE2CFDF182FCC2314F4C07C69F165
:1005B00081E3C8DF8A7049F52BC04FEF50E060E05F
:1005C00070E080E09FE346DF2197B9F7107E71F07D
:1005D000C0EDD7E02FEF30E040E050E060E07FE397
:1005E00081E090E061DF2197A9F70DC0C0EDD7E071
:1005F0002FEF30E040E050E060E07FE380E090E00B
:1006000053DF2197A9F76FDF03C0C8EED3E0D5CF42
:10061000DF91CF911F91089587E294DF837009F0F5
:10062000BADF8BE28FDF807F99F089E28BDF807FFA
:1006300079F059DF09C02FEF30E040E050E060E092
:100640007FE381E090E030DF8BE27CDF807F99F711
:100650008BE278DF807599F089E274DF807F79F032
:1006600042DF09C02FEF30E040E050E060E07FE380
:1006700080E090E019DF8BE265DF807599F70895DF
:1006800083E687B986EC86B93699FECF84B10895A2
:1006900082E687B986EC86B93699FECF84B1089593
:1006A00087B3866087BB81B3806C81BB8898899A49
:1006B000A19A84B3837F84BBA99A87E690E0C7DCC4
:1006C0006FEF70E088E090E0CADC80B3836080BBAD
:1006D00083B3806383BB84E680B967EC80E248DF44
:1006E0006CE081E245DF6AEC80E342DF89E22ADFE9
:1006F0004FEF50E060E070E080E09FE383DE8CDF4E
:10070000BFDF813280F4C4DF813468F4C8E8D3E10C
:100710004FEF50E060E070E080E09FE373DE2197F0
:10072000B9F7E1DEFECFACDF813458F4DCDE2FEF29
:1007300030E040E050E060E07FE381E090E0B4DE54
:100740000DC0A6DF813450F4CEDE2FEF30E040E064
:1007500050E060E07FE380E090E0A6DE80ED97E08F
:100760000197F1F7C5CF5058BB27AA270ED00DC16E
:10077000FED030F003D120F031F49F3F11F41EF48D
:10078000F3C00EF4E095E7FBE9C0E92F0FD180F349
:10079000BA17620773078407950718F071F49EF57E
:1007A00027C10EF4E0950B2EBA2FA02D0B01B90135
:1007B00090010C01CA01A0011124FF27591B99F0D7
:1007C000593F50F4503E68F11A16F040A22F232FE3
:1007D000342F4427585FF3CF469537952795A79533
:1007E000F0405395C9F77EF41F16BA0B620B730BDA
:1007F000840BBAF09150A1F0FF0FBB1F661F771F4B
:10080000881FC2F70EC0BA0F621F731F841F48F4FF
:10081000879577956795B795F7959E3F08F0B3CF85
:100820009395880F08F09927EE0F9795879508956F
:1008300071D008F481E0089504D06894B111D9C052
:100840000895BCD088F09F5790F0B92F9927B751E1
:10085000A0F0D1F0660F771F881F991F1AF0BA9584
:10086000C9F712C0B13081F0C3D0B1E00895C0C063
:10087000672F782F8827B85F39F0B93FCCF386957A
:1008800077956795B395D9F73EF4909580957095D7
:1008900061957F4F8F4F9F4F0895E89409C097FB54
:1008A0003EF490958095709561957F4F8F4F9F4F47
:1008B0009923A9F0F92F96E9BB279395F69587958B
:1008C00077956795B795F111F8CFFAF4BB0F11F44E
:1008D00060FF1BC06F5F7F4F8F4F9F4F16C08823F5
:1008E00011F096E911C0772321F09EE8872F762F2B
:1008F00005C0662371F096E8862F70E060E02AF06C
:100900009A95660F771F881FDAF7880F9695879557
:1009100097F90895990F0008550FAA0BE0E8FEEF2C
:1009200016161706E807F907C0F012161306E407B3
:10093000F50798F0621B730B840B950B39F40A26AC
:1009400061F0232B242B252B21F408950A2609F48A
:10095000A140A6958FEF811D811D089597F99F678E
:1009600080E870E060E008959FEF80EC0895002437
:100970000A941616170618060906089500240A9404
:1009800012161306140605060895092E0394000C8A
:1009900011F4882352F0BB0F40F4BF2B11F460FF19
:1009A00004C06F5F7F4F8F4F9F4F089557FD905842
:1009B000440F551F59F05F3F71F04795880F97FB23
:1009C000991F61F09F3F79F08795089512161306DD
:1009D0001406551FF2CF4695F1DF08C0161617060C
:1009E0001806991FF1CF8695710561050894089541
:1009F000E894BB2766277727CB0197F908958ADF0C
:100A000008F48FEF08950BD0C0CFB1DF28F0B6DF28
:100A100018F0952309F0A2CFA7CF1124EACFC6DFA3
:100A2000A0F3959FD1F3950F50E0551F629FF00101
:100A3000729FBB27F00DB11D639FAA27F00DB11D5A
:100A4000AA1F649F6627B00DA11D661F829F2227E3
:100A5000B00DA11D621F739FB00DA11D621F839F6A
:100A6000A00D611D221F749F3327A00D611D231F40
:100A7000849F600D211D822F762F6A2F11249F578E
:100A800050408AF0E1F088234AF0EE0FFF1FBB1FB1
:100A9000661F771F881F91505040A9F79E3F510550
:100AA00070F05CCFA6CF5F3FECF3983EDCF3869509
:100AB00077956795B795F795E7959F5FC1F7FE2BFB
:100AC000880F911D9695879597F90895F894FFCF13
:00000001FF
