S0180000526F626F74436F6D7065746974696F6E2E737265637B
S113000012C019C018C017C016C015C014C013C040
S113001012C011C010C00FC00EC00DC00CC00BC068
S11300200AC009C008C011241FBECFE5D4E0DEBF5A
S1130030CDBF89D0A2C0E4CF2FB52F702FBD2EB570
S11300402F722EBD6F3F710569F42FB52D7F2FBD23
S11300502EB52F7E2EBD2FB521602FBD2EB5286065
S11300602EBD1DC06F3F21E0720769F42FB52E7FAE
S11300702FBD2EB52F7E2EBD2FB522602FBD2EB5E0
S113008028602EBD0CC06F3F734049F42EB52F7EFF
S11300902EBD2FB523602FBD2EB528602EBD813017
S11300A0910521F42EB521602EBD0EC08830910536
S11300B021F42EB522602EBD0FC08034910521F4A9
S11300C08EB583608EBD0895811521E0920721F4D9
S11300D08EB584608EBD08958115944019F48EB553
S11300E085608EBD089590BD89B91BB888E18AB931
S11300F086E880BD08955D9BFECF8CB90895CF93AB
S11301009DEC899F912D1124969596959695990F1E
S1130110292F220F220F920FC82FC91BC05D99E20D
S1130120899F812D112482958F7098E09AB9805D02
S1130130E2DF5E9BFECF5E9A8C2FDDDF5E9BFECFFF
S11301405E9ACF91089587B3866087BB81B3806C34
S113015081BB6FEF70E088E090E06EDF85EC92E0A9
S1130160C2DF83B3817F83BB80B310BA86B316BA70
S11101705498539A82E4C3DFFDCFF894FFCF76
S9030000FC
