:1000000012C02CC02BC02AC029C028C027C026C0BF
:1000100025C024C023C022C021C020C01FC01EC0D4
:100020001DC01CC01BC011241FBECFE5D4E0DEBF25
:10003000CDBF10E0A0E6B0E0E4ECF9E002C005902E
:100040000D92A036B107D9F720E0A0E6B0E001C0DC
:100050001D92A236B207E1F7E1D2B2C4D1CF90BD72
:1000600089B91BB888E18AB986E880BD08955D9B8F
:10007000FECF8CB95E9BFECF5E9A08952FB52F7090
:100080002FBD2EB52F722EBD6F3F710569F42FB5B0
:100090002D7F2FBD2EB52F7E2EBD2FB521602FBDFC
:1000A0002EB528602EBD1DC06F3F21E0720769F498
:1000B0002FB52E7F2FBD2EB52F7E2EBD2FB52260E2
:1000C0002FBD2EB528602EBD0CC06F3F734049F484
:1000D0002EB52F7E2EBD2FB523602FBD2EB52860E7
:1000E0002EBD8130910521F42EB521602EBD0EC0AC
:1000F0008830910521F42EB522602EBD0FC08034CA
:10010000910521F48EB583608EBD0895811521E09F
:10011000920721F48EB584608EBD089581159440B8
:1001200019F48EB585608EBD08954F925F926F92DF
:100130007F928F929F92AF92BF92CF92DF92EF9277
:10014000FF920F931F93CF93DF93EC012A013B01A2
:10015000A901980160E070E080E89FE37ED24B0146
:100160005C01B701FF0C880B990B13D36B017C0169
:1001700020E030E0A901C501B401D4D2811112C040
:10018000209781F48FB58F7C8FBD9698C29A20E01E
:1001900030E040E85FE3C301B201C4D2882309F430
:1001A0005FC013C020E030E040E85FE3C301B2016C
:1001B000B9D281110AC0C130D10509F051C08FB543
:1001C0008F7C8FBDC298969A4BC020E030E040E80B
:1001D0005FE3C501B401A6D28823E4F420E030E057
:1001E000A901C501B40185D31816A4F4209791F490
:1001F000A7019601C501B40180D320E030E040E0C2
:100200005FE32CD293D279BD68BD8FB580638FBD7B
:100210009698C29A20E030E040E85FE3C301B20163
:1002200081D288237CF520E030E0A901C301B2012E
:1002300060D318163CF5219729F5A3019201C70157
:10024000B6015BD320E030E040E05FE307D26ED23E
:1002500079BD68BD8FB580638FBDC29A969A12C072
:1002600020E030E040E85FE3C501B4015BD28823C1
:100270004CF420E030E0A901C501B4013AD31816CE
:100280000CF4B4CFDF91CF911F910F91FF90EF90BD
:10029000DF90CF90BF90AF909F908F907F906F90A6
:1002A0005F904F9008954F925F926F927F928F92DE
:1002B0009F92AF92BF92CF92DF92EF92FF920F93F5
:1002C0001F93CF93DF93EC012A013B01A901980111
:1002D00060E070E080E89FE3C0D14B015C01B701B2
:1002E000FF0C880B990B55D26B017C0120E030E0AC
:1002F000A901C501B40116D2811112C0209781F461
:100300008FB58F738FBD9798C19A20E030E040E899
:100310005FE3C301B20106D2882309F45FC013C0B2
:1003200020E030E040E85FE3C301B201FBD181117E
:100330000AC0C130D10509F051C08FB58F738FBD90
:10034000C198979A4BC020E030E040E85FE3C501D8
:10035000B401E8D18823E4F420E030E0A901C5012C
:10036000B401C7D21816A4F4209791F4A7019601FE
:10037000C501B401C2D220E030E040E05FE36ED1BD
:10038000D5D17BBD6ABD8FB5806C8FBD9798C19A62
:1003900020E030E040E85FE3C301B201C3D188232D
:1003A0007CF520E030E0A901C301B201A2D2181609
:1003B0003CF5219729F5A3019201C701B6019DD211
:1003C00020E030E040E05FE349D1B0D17BBD6ABDC1
:1003D0008FB5806C8FBDC19A979A12C020E030E033
:1003E00040E85FE3C501B4019DD188234CF420E0CF
:1003F00030E0A901C501B4017CD218160CF4B4CFC9
:10040000DF91CF911F910F91FF90EF90DF90CF90F0
:10041000BF90AF909F908F907F906F905F904F9024
:1004200008958F929F92AF92BF92EF92FF920F9397
:100430001F93CF93DF934B015C017A018B019C01E9
:100440004DEC5CEC6CE47FE380E090E06EDE9501C7
:1004500084014DEC5CEC6CE47FE380E090E023DF12
:10046000DF91CF911F910F91FF90EF90BF90AF90D0
:100470009F908F900895EF92FF920F931F9381307A
:10048000910549F4790100E010E020E83FE381E0C4
:1004900090E04BDE0AC0892B41F4790100E010E0C6
:1004A00020E83FE381E090E0FEDE1F910F91FF9096
:1004B000EF90089584EA86BF06B607FEFDCF81B1AE
:1004C000887FD5DD0895862B83B984E886BF06B67C
:1004D00007FEFDCF81B1887FCADD0895869583B977
:1004E00084E886BF06B607FEFDCF81B1887FBFDDF9
:1004F000089584E986BF06B607FCFDCF86B78F7ED8
:1005000086BF81B1887FB3DD0895CF93C82F80E087
:1005100090E0D0DF60E070E080E3D5DF8C2FDEDF9D
:1005200081E090E0C7DF61E070E080E3CCDFE1DFF5
:1005300083B1CF910895CF93DF9382E5E6DFD82F83
:1005400086E5E3DFC82F8D2F90E02091610030E039
:100550002F5031098217930784F44FEF50E060E089
:1005600070E080E09FE35DDF2FEF30E040E050E09F
:1005700060E07FE381E090E07EDF8C2F90E02091CF
:10058000600030E0A9014F505109841795072CF005
:10059000215F3F4F2817390784F44FEF50E060E0A8
:1005A00070E080E09FE33DDF2FEF30E040E050E07F
:1005B00060E07FE381E090E05EDFDF91CF9108951E
:1005C000CF938EE4A2DFC82F837009F0B4DFC1FFA0
:1005D00004C086E59ADF80936000C0FF1DC082E5FD
:1005E00094DF809361001816BCF48091600088232A
:1005F00054F42FEF30E040E050E060E07FE381E032
:1006000090E039DF09C02FEF30E040E050E060E0DB
:100610007FE380E090E02FDFCF91089587B386607D
:1006200087BB81B3806C81BB8898899A87E690E00C
:1006300016DD6FEF70E088E090E020DD80B383602E
:1006400080BB83B3806383BB84E680B98FE05DDFCA
:100650000EDD82E55ADFB4DFFECF5058BB27AA2754
:100660000ED00DC1FED030F003D120F031F49F3F09
:1006700011F41EF4F3C00EF4E095E7FBE9C0E92F96
:100680000FD180F3BA17620773078407950718F034
:1006900071F49EF527C10EF4E0950B2EBA2FA02D14
:1006A0000B01B90190010C01CA01A0011124FF271F
:1006B000591B99F0593F50F4503E68F11A16F0401A
:1006C000A22F232F342F4427585FF3CF4695379519
:1006D0002795A795F0405395C9F77EF41F16BA0BDE
:1006E000620B730B840BBAF09150A1F0FF0FBB1F8C
:1006F000661F771F881FC2F70EC0BA0F621F731FD5
:10070000841F48F4879577956795B795F7959E3F31
:1007100008F0B3CF9395880F08F09927EE0F9795BF
:100720008795089571D008F481E0089504D0689405
:10073000B111D9C00895BCD088F09F5790F0B92F5F
:100740009927B751A0F0D1F0660F771F881F991F26
:100750001AF0BA95C9F712C0B13081F0C3D0B1E038
:100760000895C0C0672F782F8827B85F39F0B93F48
:10077000CCF3869577956795B395D9F73EF4909528
:100780008095709561957F4F8F4F9F4F0895E894A6
:1007900009C097FB3EF490958095709561957F4FC9
:1007A0008F4F9F4F9923A9F0F92F96E9BB27939577
:1007B000F695879577956795B795F111F8CFFAF487
:1007C000BB0F11F460FF1BC06F5F7F4F8F4F9F4FB8
:1007D00016C0882311F096E911C0772321F09EE816
:1007E000872F762F05C0662371F096E8862F70E07C
:1007F00060E02AF09A95660F771F881FDAF7880F56
:100800009695879597F90895990F0008550FAA0BAB
:10081000E0E8FEEF16161706E807F907C0F0121613
:100820001306E407F50798F0621B730B840B950B16
:1008300039F40A2661F0232B242B252B21F408956B
:100840000A2609F4A140A6958FEF811D811D089508
:1008500097F99F6780E870E060E008959FEF80EC73
:10086000089500240A941616170618060906089516
:1008700000240A9412161306140605060895092E7C
:100880000394000C11F4882352F0BB0F40F4BF2BEB
:1008900011F460FF04C06F5F7F4F8F4F9F4F08952B
:1008A00057FD9058440F551F59F05F3F71F0479521
:1008B000880F97FB991F61F09F3F79F08795089506
:1008C000121613061406551FF2CF4695F1DF08C025
:1008D000161617061806991FF1CF86957105610542
:1008E00008940895E894BB2766277727CB0197F9EA
:1008F00008958ADF08F48FEF08950BD0C0CFB1DFE1
:1009000028F0B6DF18F0952309F0A2CFA7CF112465
:10091000EACFC6DFA0F3959FD1F3950F50E0551FA6
:10092000629FF001729FBB27F00DB11D639FAA2744
:10093000F00DB11DAA1F649F6627B00DA11D661F93
:10094000829F2227B00DA11D621F739FB00DA11DB4
:10095000621F839FA00D611D221F749F3327A00D6E
:10096000611D231F849F600D211D822F762F6A2F0A
:1009700011249F5750408AF0E1F088234AF0EE0F8F
:10098000FF1FBB1F661F771F881F91505040A9F79C
:100990009E3F510570F05CCFA6CF5F3FECF3983ED1
:1009A000DCF3869577956795B795F795E7959F5F03
:1009B000C1F7FE2B880F911D9695879597F908959D
:0409C000F894FFCFD9
:00000001FF
